{
  "contractName": "Orders",
  "abi": [
    {
      "constant": true,
      "inputs": [
        {
          "name": "",
          "type": "uint256"
        }
      ],
      "name": "orders",
      "outputs": [
        {
          "name": "productId",
          "type": "uint256"
        },
        {
          "name": "name",
          "type": "string"
        },
        {
          "name": "quantity",
          "type": "uint256"
        },
        {
          "name": "price",
          "type": "uint256"
        },
        {
          "name": "shippingAddress",
          "type": "string"
        },
        {
          "name": "shippingFee",
          "type": "uint256"
        },
        {
          "name": "orderStatus",
          "type": "uint256"
        },
        {
          "name": "shippingTime",
          "type": "uint256"
        },
        {
          "name": "createdAt",
          "type": "uint256"
        }
      ],
      "payable": false,
      "stateMutability": "view",
      "type": "function"
    },
    {
      "constant": false,
      "inputs": [
        {
          "name": "_productId",
          "type": "uint256"
        },
        {
          "name": "_name",
          "type": "string"
        },
        {
          "name": "_quantity",
          "type": "uint256"
        },
        {
          "name": "_price",
          "type": "uint256"
        },
        {
          "name": "_shipAddress",
          "type": "string"
        },
        {
          "name": "_shippingFee",
          "type": "uint256"
        },
        {
          "name": "_shopAddress",
          "type": "address"
        }
      ],
      "name": "createOrder",
      "outputs": [
        {
          "name": "",
          "type": "uint256"
        }
      ],
      "payable": false,
      "stateMutability": "nonpayable",
      "type": "function"
    },
    {
      "constant": true,
      "inputs": [],
      "name": "getOrderByCustomer",
      "outputs": [
        {
          "name": "",
          "type": "uint256[]"
        }
      ],
      "payable": false,
      "stateMutability": "view",
      "type": "function"
    }
  ],
  "bytecode": "0x608060405234801561001057600080fd5b50610838806100206000396000f300608060405260043610610057576000357c0100000000000000000000000000000000000000000000000000000000900463ffffffff1680632ee16add1461005c57806392217b7914610167578063a85c38ef146101d3575b600080fd5b34801561006857600080fd5b5061015160048036038101908080359060200190929190803590602001908201803590602001908080601f01602080910402602001604051908101604052809392919081815260200183838082843782019150505050505091929192908035906020019092919080359060200190929190803590602001908201803590602001908080601f016020809104026020016040519081016040528093929190818152602001838380828437820191505050505050919291929080359060200190929190803573ffffffffffffffffffffffffffffffffffffffff169060200190929190505050610316565b6040518082815260200191505060405180910390f35b34801561017357600080fd5b5061017c610545565b6040518080602001828103825283818151815260200191508051906020019060200280838360005b838110156101bf5780820151818401526020810190506101a4565b505050509050019250505060405180910390f35b3480156101df57600080fd5b506101fe600480360381019080803590602001909291905050506105da565b604051808a8152602001806020018981526020018881526020018060200187815260200186815260200185815260200184815260200183810383528b818151815260200191508051906020019080838360005b8381101561026c578082015181840152602081019050610251565b50505050905090810190601f1680156102995780820380516001836020036101000a031916815260200191505b50838103825288818151815260200191508051906020019080838360005b838110156102d25780820151818401526020810190506102b7565b50505050905090810190601f1680156102ff5780820380516001836020036101000a031916815260200191505b509b50505050505050505050505060405180910390f35b60008060016000610120604051908101604052808c81526020018b81526020018a815260200189815260200188815260200187815260200160008152602001600081526020016000815250908060018154018082558091505090600182039060005260206000209060090201600090919290919091506000820151816000015560208201518160010190805190602001906103b2929190610767565b50604082015181600201556060820151816003015560808201518160040190805190602001906103e3929190610767565b5060a0820151816005015560c0820151816006015560e0820151816007015561010082015181600801555050039050826001600083815260200190815260200160002060006101000a81548173ffffffffffffffffffffffffffffffffffffffff021916908373ffffffffffffffffffffffffffffffffffffffff160217905550600260008473ffffffffffffffffffffffffffffffffffffffff1673ffffffffffffffffffffffffffffffffffffffff168152602001908152602001600020819080600181540180825580915050906001820390600052602060002001600090919290919091505550600360003373ffffffffffffffffffffffffffffffffffffffff1673ffffffffffffffffffffffffffffffffffffffff16815260200190815260200160002081908060018154018082558091505090600182039060005260206000200160009091929091909150555080915050979650505050505050565b6060600360003373ffffffffffffffffffffffffffffffffffffffff1673ffffffffffffffffffffffffffffffffffffffff1681526020019081526020016000208054806020026020016040519081016040528092919081815260200182805480156105d057602002820191906000526020600020905b8154815260200190600101908083116105bc575b5050505050905090565b6000818154811015156105e957fe5b9060005260206000209060090201600091509050806000015490806001018054600181600116156101000203166002900480601f01602080910402602001604051908101604052809291908181526020018280546001816001161561010002031660029004801561069b5780601f106106705761010080835404028352916020019161069b565b820191906000526020600020905b81548152906001019060200180831161067e57829003601f168201915b505050505090806002015490806003015490806004018054600181600116156101000203166002900480601f0160208091040260200160405190810160405280929190818152602001828054600181600116156101000203166002900480156107455780601f1061071a57610100808354040283529160200191610745565b820191906000526020600020905b81548152906001019060200180831161072857829003601f168201915b5050505050908060050154908060060154908060070154908060080154905089565b828054600181600116156101000203166002900490600052602060002090601f016020900481019282601f106107a857805160ff19168380011785556107d6565b828001600101855582156107d6579182015b828111156107d55782518255916020019190600101906107ba565b5b5090506107e391906107e7565b5090565b61080991905b808211156108055760008160009055506001016107ed565b5090565b905600a165627a7a72305820420e5dd5b35baff7cd0e0ca96bb1a39ceac1cc6b29480f6ae7b10599195e7e970029",
  "source": "pragma solidity ^0.4.23;\n\ncontract Orders {\n  struct Order {\n    uint productId;\n    string name;\n    uint quantity;\n    uint price;\n    string shippingAddress;\n    uint shippingFee;\n    uint orderStatus;\n    uint shippingTime;\n    uint createdAt;\n  }\n  \n  Order[] public orders;\n  mapping (uint => address) ordersToShop;\n  mapping( address => uint[]) ordersOfShop;\n  mapping ( address => uint[]) ordersOfCustomer;\n\n  function createOrder(uint _productId, string _name, uint _quantity, uint _price, string _shipAddress, uint _shippingFee, address _shopAddress)\n    public returns (uint) {\n    uint id = orders.push(Order(_productId, _name, _quantity, _price, _shipAddress, _shippingFee, 0, 0, 0)) - 1;\n    ordersToShop[id] = _shopAddress;\n    ordersOfShop[_shopAddress].push(id);\n    ordersOfCustomer[msg.sender].push(id);\n    return id;\n  }\n\n  function getOrderByCustomer() external view returns (uint[]) {\n    return ordersOfCustomer[msg.sender];\n  }\n}",
  "sourcePath": "/home/manh/Desktop/smart_contract/contracts/Orders.sol",
  "compiler": {
    "name": "solc",
    "version": "0.4.24+commit.e67f0147.Emscripten.clang"
  },
  "schemaVersion": "2.0.1",
  "updatedAt": "2018-10-16T10:24:39.931Z"
}