{
  "contractName": "Orders",
  "abi": [
    {
      "anonymous": false,
      "inputs": [
        {
          "indexed": false,
          "name": "productId",
          "type": "uint256"
        },
        {
          "indexed": false,
          "name": "name",
          "type": "string"
        },
        {
          "indexed": false,
          "name": "quantity",
          "type": "uint256"
        },
        {
          "indexed": false,
          "name": "price",
          "type": "uint256"
        },
        {
          "indexed": false,
          "name": "shippingAddress",
          "type": "string"
        },
        {
          "indexed": false,
          "name": "shippingFee",
          "type": "uint256"
        },
        {
          "indexed": false,
          "name": "orderStatus",
          "type": "uint256"
        },
        {
          "indexed": false,
          "name": "shippingTime",
          "type": "uint256"
        },
        {
          "indexed": false,
          "name": "createdAt",
          "type": "uint256"
        },
        {
          "indexed": false,
          "name": "updatedAt",
          "type": "uint256"
        }
      ],
      "name": "NewOrder",
      "type": "event"
    },
    {
      "anonymous": false,
      "inputs": [
        {
          "indexed": false,
          "name": "_id",
          "type": "uint256"
        },
        {
          "indexed": false,
          "name": "status",
          "type": "uint256"
        }
      ],
      "name": "UpdateOrder",
      "type": "event"
    },
    {
      "constant": false,
      "inputs": [
        {
          "name": "_productId",
          "type": "uint256"
        },
        {
          "name": "_name",
          "type": "string"
        },
        {
          "name": "_quantity",
          "type": "uint256"
        },
        {
          "name": "_price",
          "type": "uint256"
        },
        {
          "name": "_shipAddress",
          "type": "string"
        },
        {
          "name": "_shippingFee",
          "type": "uint256"
        },
        {
          "name": "_shopAddress",
          "type": "address"
        }
      ],
      "name": "createOrder",
      "outputs": [
        {
          "name": "",
          "type": "uint256"
        }
      ],
      "payable": false,
      "stateMutability": "nonpayable",
      "type": "function"
    },
    {
      "constant": true,
      "inputs": [],
      "name": "getOrderIdsByCustomer",
      "outputs": [
        {
          "name": "",
          "type": "uint256[]"
        }
      ],
      "payable": false,
      "stateMutability": "view",
      "type": "function"
    },
    {
      "constant": true,
      "inputs": [],
      "name": "getOrderIdsByShop",
      "outputs": [
        {
          "name": "",
          "type": "uint256[]"
        }
      ],
      "payable": false,
      "stateMutability": "view",
      "type": "function"
    },
    {
      "constant": true,
      "inputs": [
        {
          "name": "_id",
          "type": "uint256"
        }
      ],
      "name": "getOrderById",
      "outputs": [
        {
          "name": "",
          "type": "uint256"
        },
        {
          "name": "",
          "type": "string"
        },
        {
          "name": "",
          "type": "uint256"
        },
        {
          "name": "",
          "type": "uint256"
        },
        {
          "name": "",
          "type": "string"
        },
        {
          "name": "",
          "type": "uint256"
        },
        {
          "name": "",
          "type": "uint256"
        },
        {
          "name": "",
          "type": "uint256"
        }
      ],
      "payable": false,
      "stateMutability": "view",
      "type": "function"
    },
    {
      "constant": false,
      "inputs": [
        {
          "name": "_id",
          "type": "uint256"
        },
        {
          "name": "status",
          "type": "uint256"
        }
      ],
      "name": "updateOrderStatus",
      "outputs": [],
      "payable": false,
      "stateMutability": "nonpayable",
      "type": "function"
    }
  ],
  "bytecode": "0x608060405234801561001057600080fd5b50610f75806100206000396000f30060806040526004361061006d576000357c0100000000000000000000000000000000000000000000000000000000900463ffffffff1680632ee16add1461007257806342b50a7a1461017d57806355502cf5146102b957806375435da014610325578063d69567a51461035c575b600080fd5b34801561007e57600080fd5b5061016760048036038101908080359060200190929190803590602001908201803590602001908080601f01602080910402602001604051908101604052809392919081815260200183838082843782019150505050505091929192908035906020019092919080359060200190929190803590602001908201803590602001908080601f016020809104026020016040519081016040528093929190818152602001838380828437820191505050505050919291929080359060200190929190803573ffffffffffffffffffffffffffffffffffffffff1690602001909291905050506103c8565b6040518082815260200191505060405180910390f35b34801561018957600080fd5b506101a860048036038101908080359060200190929190505050610607565b60405180898152602001806020018881526020018781526020018060200186815260200185815260200184815260200183810383528a818151815260200191508051906020019080838360005b838110156102105780820151818401526020810190506101f5565b50505050905090810190601f16801561023d5780820380516001836020036101000a031916815260200191505b50838103825287818151815260200191508051906020019080838360005b8381101561027657808201518184015260208101905061025b565b50505050905090810190601f1680156102a35780820380516001836020036101000a031916815260200191505b509a505050505050505050505060405180910390f35b3480156102c557600080fd5b506102ce61095b565b6040518080602001828103825283818151815260200191508051906020019060200280838360005b838110156103115780820151818401526020810190506102f6565b505050509050019250505060405180910390f35b34801561033157600080fd5b5061035a60048036038101908080359060200190929190803590602001909291905050506109f5565b005b34801561036857600080fd5b50610371610bec565b6040518080602001828103825283818151815260200191508051906020019060200280838360005b838110156103b4578082015181840152602081019050610399565b505050509050019250505060405180910390f35b60008060016000610140604051908101604052808c81526020018b81526020018a81526020018981526020018881526020018781526020016000815260200160008152602001428152602001428152509080600181540180825580915050906001820390600052602060002090600a020160009091929091909150600082015181600001556020820151816001019080519060200190610469929190610e50565b506040820151816002015560608201518160030155608082015181600401908051906020019061049a929190610e50565b5060a0820151816005015560c0820151816006015560e08201518160070155610100820151816008015561012082015181600901555050039050826001600083815260200190815260200160002060006101000a81548173ffffffffffffffffffffffffffffffffffffffff021916908373ffffffffffffffffffffffffffffffffffffffff160217905550600260008473ffffffffffffffffffffffffffffffffffffffff1673ffffffffffffffffffffffffffffffffffffffff168152602001908152602001600020819080600181540180825580915050906001820390600052602060002001600090919290919091505550600360003373ffffffffffffffffffffffffffffffffffffffff1673ffffffffffffffffffffffffffffffffffffffff16815260200190815260200160002081908060018154018082558091505090600182039060005260206000200160009091929091909150555080915050979650505050505050565b600060606000806060600080600061061d610ed0565b896000805490508110151561069a576040517f08c379a00000000000000000000000000000000000000000000000000000000081526004018080602001828103825260158152602001807f4f7264657220646f6573206e6f742065786973742e000000000000000000000081525060200191505060405180910390fd5b8a6106a481610c86565b806106b457506106b381610d6b565b5b151561074e576040517f08c379a00000000000000000000000000000000000000000000000000000000081526004018080602001828103825260288152602001807f446f6e27742068617665207065726d697373696f6e20746f206765742074686981526020017f73206f726465722e00000000000000000000000000000000000000000000000081525060400191505060405180910390fd5b60008c81548110151561075d57fe5b90600052602060002090600a0201610140604051908101604052908160008201548152602001600182018054600181600116156101000203166002900480601f01602080910402602001604051908101604052809291908181526020018280546001816001161561010002031660029004801561081b5780601f106107f05761010080835404028352916020019161081b565b820191906000526020600020905b8154815290600101906020018083116107fe57829003601f168201915b505050505081526020016002820154815260200160038201548152602001600482018054600181600116156101000203166002900480601f0160208091040260200160405190810160405280929190818152602001828054600181600116156101000203166002900480156108d15780601f106108a6576101008083540402835291602001916108d1565b820191906000526020600020905b8154815290600101906020018083116108b457829003601f168201915b50505050508152602001600582015481526020016006820154815260200160078201548152602001600882015481526020016009820154815250509250826000015183602001518460400151856060015186608001518760a001518860e001518961010001518696508393509a509a509a509a509a509a509a509a50505050919395975091939597565b606080600360003373ffffffffffffffffffffffffffffffffffffffff1673ffffffffffffffffffffffffffffffffffffffff1681526020019081526020016000208054806020026020016040519081016040528092919081815260200182805480156109e757602002820191906000526020600020905b8154815260200190600101908083116109d3575b505050505090508091505090565b60058111151515610a6e576040517f08c379a00000000000000000000000000000000000000000000000000000000081526004018080602001828103825260128152602001807f53746174757320697320696e76616c69642e000000000000000000000000000081525060200191505060405180910390fd5b6004811415610b1f57610a8082610c86565b1515610b1a576040517f08c379a000000000000000000000000000000000000000000000000000000000815260040180806020018281038252602b8152602001807f446f6e27742068617665207065726d697373696f6e20746f207570646174652081526020017f74686973206f726465722e00000000000000000000000000000000000000000081525060400191505060405180910390fd5b610bc3565b610b2882610d6b565b1515610bc2576040517f08c379a000000000000000000000000000000000000000000000000000000000815260040180806020018281038252602b8152602001807f446f6e27742068617665207065726d697373696f6e20746f207570646174652081526020017f74686973206f726465722e00000000000000000000000000000000000000000081525060400191505060405180910390fd5b5b80600083815481101515610bd357fe5b90600052602060002090600a0201600601819055505050565b606080600260003373ffffffffffffffffffffffffffffffffffffffff1673ffffffffffffffffffffffffffffffffffffffff168152602001908152602001600020805480602002602001604051908101604052809291908181526020018280548015610c7857602002820191906000526020600020905b815481526020019060010190808311610c64575b505050505090508091505090565b600060606000600360003373ffffffffffffffffffffffffffffffffffffffff1673ffffffffffffffffffffffffffffffffffffffff168152602001908152602001600020805480602002602001604051908101604052809291908181526020018280548015610d1557602002820191906000526020600020905b815481526020019060010190808311610d01575b50505050509150600090505b8151811015610d5f57838282815181101515610d3957fe5b906020019060200201511415610d525760019250610d64565b8080600101915050610d21565b600092505b5050919050565b600060606000600260003373ffffffffffffffffffffffffffffffffffffffff1673ffffffffffffffffffffffffffffffffffffffff168152602001908152602001600020805480602002602001604051908101604052809291908181526020018280548015610dfa57602002820191906000526020600020905b815481526020019060010190808311610de6575b50505050509150600090505b8151811015610e4457838282815181101515610e1e57fe5b906020019060200201511415610e375760019250610e49565b8080600101915050610e06565b600092505b5050919050565b828054600181600116156101000203166002900490600052602060002090601f016020900481019282601f10610e9157805160ff1916838001178555610ebf565b82800160010185558215610ebf579182015b82811115610ebe578251825591602001919060010190610ea3565b5b509050610ecc9190610f24565b5090565b61014060405190810160405280600081526020016060815260200160008152602001600081526020016060815260200160008152602001600081526020016000815260200160008152602001600081525090565b610f4691905b80821115610f42576000816000905550600101610f2a565b5090565b905600a165627a7a7230582008bbb842fbc274f7ad5e58d6a8034923aeb52f9b01aae5bf91c0619e6ef697f80029",
  "source": "pragma solidity ^0.4.23;\n\ncontract Orders {\n  struct Order {\n    uint productId;\n    string name;\n    uint quantity;\n    uint price;\n    string shippingAddress;\n    uint shippingFee;\n    uint orderStatus;\n    uint shippingTime;\n    uint createdAt;\n    uint updatedAt;\n  }\n  \n  Order[] orders;\n  mapping (uint => address) ordersToShop;\n  mapping( address => uint[]) ordersOfShop;\n  mapping ( address => uint[]) ordersOfCustomer;\n\n  event NewOrder(\n    uint productId, string name, uint quantity,\n    uint price, string shippingAddress, uint shippingFee,\n    uint orderStatus, uint shippingTime, uint createdAt,\n    uint updatedAt\n  );\n\n  event UpdateOrder(uint _id, uint status);\n\n  modifier orderExits(uint _id) {\n    require(_id < orders.length, \"Order does not exist.\");\n    _;\n  }\n\n  // Check if msg.sender have permission to get order info\n  modifier canGetOrderInfo(uint _id) {\n    require(checkOrderBeLongCustomer(_id) || checkOrderBeLongShop(_id), \"Don't have permission to get this order.\");\n    _;\n  }\n\n  function createOrder(uint _productId, string _name, uint _quantity, uint _price, string _shipAddress, uint _shippingFee, address _shopAddress)\n    public returns (uint) {\n    uint id = orders.push(Order(_productId, _name, _quantity, _price, _shipAddress, _shippingFee, 0, 0, now, now)) - 1;\n    ordersToShop[id] = _shopAddress;\n    ordersOfShop[_shopAddress].push(id);\n    ordersOfCustomer[msg.sender].push(id);\n    // emit NewOrder(_productId, _name, _quantity, _price, _shipAddress, _shippingFee, 0, 0, now, now);\n    return id;\n    \n  }\n\n  function getOrderIdsByCustomer() external view returns (uint[]) {\n    uint[] memory orderIds = ordersOfCustomer[msg.sender];\n    return orderIds;\n  }\n\n  function getOrderIdsByShop() external view returns (uint[]) {\n    uint[] memory orderIds = ordersOfShop[msg.sender];\n    return orderIds;\n  }\n\n  function getOrderById(uint _id) external view \n  orderExits(_id)\n  canGetOrderInfo(_id) \n  returns (uint, string, uint, uint, string, uint, uint, uint) \n  {\n    Order memory order = orders[_id];\n    return (\n      order.productId, order.name,order.quantity,\n      order.price, order.shippingAddress, order.shippingFee,\n      order.shippingTime, order.createdAt\n    );\n  }\n\n  function updateOrderStatus(uint _id, uint status) public {\n    require(status <= 5, \"Status is invalid.\");\n    if (status == 4) {\n      require(checkOrderBeLongCustomer(_id), \"Don't have permission to update this order.\");\n    } else {\n      require(checkOrderBeLongShop(_id), \"Don't have permission to update this order.\");\n    }\n    orders[_id].orderStatus = status;\n    // emit UpdateOrder(_id, status);\n  }\n\n  function checkOrderBeLongShop(uint _id) internal view returns (bool) {\n    uint[] memory orderIdsOfshop = ordersOfShop[msg.sender];\n    for(uint i = 0; i < orderIdsOfshop.length; i++) {\n      if(orderIdsOfshop[i] == _id) {\n        return true;\n      }\n    }\n    return false;\n  }\n\n  function checkOrderBeLongCustomer(uint _id) internal view returns (bool) {\n    uint[] memory orderIdsOfCustomer = ordersOfCustomer[msg.sender];\n    for(uint i = 0; i < orderIdsOfCustomer.length; i++) {\n      if(orderIdsOfCustomer[i] == _id) {\n        return true;\n      }\n    }\n    return false;\n  }\n}",
  "sourcePath": "/home/manh/Desktop/smart_contract/contracts/Orders.sol",
  "compiler": {
    "name": "solc",
    "version": "0.4.24+commit.e67f0147.Emscripten.clang"
  },
  "schemaVersion": "2.0.1",
  "updatedAt": "2018-10-17T08:36:28.304Z"
}