{
  "contractName": "Orders",
  "abi": [
    {
      "anonymous": false,
      "inputs": [
        {
          "indexed": false,
          "name": "productId",
          "type": "uint256"
        },
        {
          "indexed": false,
          "name": "name",
          "type": "string"
        },
        {
          "indexed": false,
          "name": "quantity",
          "type": "uint256"
        },
        {
          "indexed": false,
          "name": "price",
          "type": "uint256"
        },
        {
          "indexed": false,
          "name": "shippingAddress",
          "type": "string"
        },
        {
          "indexed": false,
          "name": "shippingFee",
          "type": "uint256"
        },
        {
          "indexed": false,
          "name": "orderStatus",
          "type": "uint256"
        },
        {
          "indexed": false,
          "name": "shippingTime",
          "type": "uint256"
        },
        {
          "indexed": false,
          "name": "createdAt",
          "type": "uint256"
        },
        {
          "indexed": false,
          "name": "updatedAt",
          "type": "uint256"
        }
      ],
      "name": "NewOrder",
      "type": "event"
    },
    {
      "anonymous": false,
      "inputs": [
        {
          "indexed": false,
          "name": "_id",
          "type": "uint256"
        },
        {
          "indexed": false,
          "name": "status",
          "type": "int8"
        }
      ],
      "name": "UpdateOrder",
      "type": "event"
    },
    {
      "constant": false,
      "inputs": [
        {
          "name": "_productId",
          "type": "uint256"
        },
        {
          "name": "_name",
          "type": "string"
        },
        {
          "name": "_quantity",
          "type": "uint256"
        },
        {
          "name": "_price",
          "type": "uint256"
        },
        {
          "name": "_shipAddress",
          "type": "string"
        },
        {
          "name": "_shippingFee",
          "type": "uint256"
        },
        {
          "name": "_shopAddress",
          "type": "address"
        }
      ],
      "name": "createOrder",
      "outputs": [
        {
          "name": "",
          "type": "uint256"
        }
      ],
      "payable": false,
      "stateMutability": "nonpayable",
      "type": "function"
    },
    {
      "constant": true,
      "inputs": [],
      "name": "getOrderIdsByCustomer",
      "outputs": [
        {
          "name": "",
          "type": "uint256[]"
        }
      ],
      "payable": false,
      "stateMutability": "view",
      "type": "function"
    },
    {
      "constant": true,
      "inputs": [],
      "name": "getOrderIdsByShop",
      "outputs": [
        {
          "name": "",
          "type": "uint256[]"
        }
      ],
      "payable": false,
      "stateMutability": "view",
      "type": "function"
    },
    {
      "constant": true,
      "inputs": [
        {
          "name": "_id",
          "type": "uint256"
        }
      ],
      "name": "getOrderById",
      "outputs": [
        {
          "name": "",
          "type": "uint256"
        },
        {
          "name": "",
          "type": "string"
        },
        {
          "name": "",
          "type": "uint256"
        },
        {
          "name": "",
          "type": "uint256"
        },
        {
          "name": "",
          "type": "string"
        },
        {
          "name": "",
          "type": "uint256"
        },
        {
          "name": "",
          "type": "int8"
        },
        {
          "name": "",
          "type": "uint256"
        },
        {
          "name": "",
          "type": "uint256"
        },
        {
          "name": "",
          "type": "uint256"
        }
      ],
      "payable": false,
      "stateMutability": "view",
      "type": "function"
    },
    {
      "constant": false,
      "inputs": [
        {
          "name": "_id",
          "type": "uint256"
        },
        {
          "name": "status",
          "type": "int8"
        }
      ],
      "name": "updateOrderStatus",
      "outputs": [],
      "payable": false,
      "stateMutability": "nonpayable",
      "type": "function"
    }
  ],
  "bytecode": "0x608060405234801561001057600080fd5b50611228806100206000396000f30060806040526004361061006d576000357c0100000000000000000000000000000000000000000000000000000000900463ffffffff1680630a6b10e9146100725780632ee16add146100ac57806342b50a7a146101b757806355502cf514610307578063d69567a514610373575b600080fd5b34801561007e57600080fd5b506100aa60048036038101908080359060200190929190803560000b90602001909291905050506103df565b005b3480156100b857600080fd5b506101a160048036038101908080359060200190929190803590602001908201803590602001908080601f01602080910402602001604051908101604052809392919081815260200183838082843782019150505050505091929192908035906020019092919080359060200190929190803590602001908201803590602001908080601f016020809104026020016040519081016040528093929190818152602001838380828437820191505050505050919291929080359060200190929190803573ffffffffffffffffffffffffffffffffffffffff1690602001909291905050506106e3565b6040518082815260200191505060405180910390f35b3480156101c357600080fd5b506101e260048036038101908080359060200190929190505050610a88565b604051808b8152602001806020018a8152602001898152602001806020018881526020018760000b60000b815260200186815260200185815260200184815260200183810383528c818151815260200191508051906020019080838360005b8381101561025c578082015181840152602081019050610241565b50505050905090810190601f1680156102895780820380516001836020036101000a031916815260200191505b50838103825289818151815260200191508051906020019080838360005b838110156102c25780820151818401526020810190506102a7565b50505050905090810190601f1680156102ef5780820380516001836020036101000a031916815260200191505b509c5050505050505050505050505060405180910390f35b34801561031357600080fd5b5061031c610e03565b6040518080602001828103825283818151815260200191508051906020019060200280838360005b8381101561035f578082015181840152602081019050610344565b505050509050019250505060405180910390f35b34801561037f57600080fd5b50610388610e9d565b6040518080602001828103825283818151815260200191508051906020019060200280838360005b838110156103cb5780820151818401526020810190506103b0565b505050509050019250505060405180910390f35b816000805490508110151561045c576040517f08c379a00000000000000000000000000000000000000000000000000000000081526004018080602001828103825260158152602001807f4f7264657220646f6573206e6f742065786973742e000000000000000000000081525060200191505060405180910390fd5b60058260000b131515156104d8576040517f08c379a00000000000000000000000000000000000000000000000000000000081526004018080602001828103825260128152602001807f53746174757320697320696e76616c69642e000000000000000000000000000081525060200191505060405180910390fd5b60048260000b148061050c57507fffffffffffffffffffffffffffffffffffffffffffffffffffffffffffffffff8260000b145b156105b95761051a83610f37565b15156105b4576040517f08c379a000000000000000000000000000000000000000000000000000000000815260040180806020018281038252602b8152602001807f446f6e27742068617665207065726d697373696f6e20746f207570646174652081526020017f74686973206f726465722e00000000000000000000000000000000000000000081525060400191505060405180910390fd5b61065d565b6105c28361101c565b151561065c576040517f08c379a000000000000000000000000000000000000000000000000000000000815260040180806020018281038252602b8152602001807f446f6e27742068617665207065726d697373696f6e20746f207570646174652081526020017f74686973206f726465722e00000000000000000000000000000000000000000081525060400191505060405180910390fd5b5b8160008481548110151561066d57fe5b90600052602060002090600a020160060160006101000a81548160ff021916908360000b60ff1602179055507fc7b1bdb70360bb6832ef6774b0ff131818b56e6a8ea93e4331fafb30629eef398383604051808381526020018260000b60000b81526020019250505060405180910390a1505050565b60008060016000610140604051908101604052808c81526020018b81526020018a81526020018981526020018881526020018781526020016000800b815260200160008152602001428152602001428152509080600181540180825580915050906001820390600052602060002090600a020160009091929091909150600082015181600001556020820151816001019080519060200190610786929190611101565b50604082015181600201556060820151816003015560808201518160040190805190602001906107b7929190611101565b5060a0820151816005015560c08201518160060160006101000a81548160ff021916908360000b60ff16021790555060e08201518160070155610100820151816008015561012082015181600901555050039050826001600083815260200190815260200160002060006101000a81548173ffffffffffffffffffffffffffffffffffffffff021916908373ffffffffffffffffffffffffffffffffffffffff160217905550600260008473ffffffffffffffffffffffffffffffffffffffff1673ffffffffffffffffffffffffffffffffffffffff168152602001908152602001600020819080600181540180825580915050906001820390600052602060002001600090919290919091505550600360003373ffffffffffffffffffffffffffffffffffffffff1673ffffffffffffffffffffffffffffffffffffffff1681526020019081526020016000208190806001815401808255809150509060018203906000526020600020016000909192909190915055507fa5d7c45b1850e766d70e855dd183a0cfa3569cb2b5f9fbb4848f7fb0ff68be438989898989896000804242604051808b8152602001806020018a81526020018981526020018060200188815260200187815260200186815260200185815260200184815260200183810383528c818151815260200191508051906020019080838360005b838110156109cf5780820151818401526020810190506109b4565b50505050905090810190601f1680156109fc5780820380516001836020036101000a031916815260200191505b50838103825289818151815260200191508051906020019080838360005b83811015610a35578082015181840152602081019050610a1a565b50505050905090810190601f168015610a625780820380516001836020036101000a031916815260200191505b509c5050505050505050505050505060405180910390a180915050979650505050505050565b6000606060008060606000806000806000610aa1611181565b8b60008054905081101515610b1e576040517f08c379a00000000000000000000000000000000000000000000000000000000081526004018080602001828103825260158152602001807f4f7264657220646f6573206e6f742065786973742e000000000000000000000081525060200191505060405180910390fd5b8c610b2881610f37565b80610b385750610b378161101c565b5b1515610bd2576040517f08c379a00000000000000000000000000000000000000000000000000000000081526004018080602001828103825260288152602001807f446f6e27742068617665207065726d697373696f6e20746f206765742074686981526020017f73206f726465722e00000000000000000000000000000000000000000000000081525060400191505060405180910390fd5b60008e815481101515610be157fe5b90600052602060002090600a0201610140604051908101604052908160008201548152602001600182018054600181600116156101000203166002900480601f016020809104026020016040519081016040528092919081815260200182805460018160011615610100020316600290048015610c9f5780601f10610c7457610100808354040283529160200191610c9f565b820191906000526020600020905b815481529060010190602001808311610c8257829003601f168201915b505050505081526020016002820154815260200160038201548152602001600482018054600181600116156101000203166002900480601f016020809104026020016040519081016040528092919081815260200182805460018160011615610100020316600290048015610d555780601f10610d2a57610100808354040283529160200191610d55565b820191906000526020600020905b815481529060010190602001808311610d3857829003601f168201915b50505050508152602001600582015481526020016006820160009054906101000a900460000b60000b60000b815260200160078201548152602001600882015481526020016009820154815250509250826000015183602001518460400151856060015186608001518760a001518860c001518960e001518a61010001518b61012001518898508595509c509c509c509c509c509c509c509c509c509c505050509193959799509193959799565b606080600360003373ffffffffffffffffffffffffffffffffffffffff1673ffffffffffffffffffffffffffffffffffffffff168152602001908152602001600020805480602002602001604051908101604052809291908181526020018280548015610e8f57602002820191906000526020600020905b815481526020019060010190808311610e7b575b505050505090508091505090565b606080600260003373ffffffffffffffffffffffffffffffffffffffff1673ffffffffffffffffffffffffffffffffffffffff168152602001908152602001600020805480602002602001604051908101604052809291908181526020018280548015610f2957602002820191906000526020600020905b815481526020019060010190808311610f15575b505050505090508091505090565b600060606000600360003373ffffffffffffffffffffffffffffffffffffffff1673ffffffffffffffffffffffffffffffffffffffff168152602001908152602001600020805480602002602001604051908101604052809291908181526020018280548015610fc657602002820191906000526020600020905b815481526020019060010190808311610fb2575b50505050509150600090505b815181101561101057838282815181101515610fea57fe5b9060200190602002015114156110035760019250611015565b8080600101915050610fd2565b600092505b5050919050565b600060606000600260003373ffffffffffffffffffffffffffffffffffffffff1673ffffffffffffffffffffffffffffffffffffffff1681526020019081526020016000208054806020026020016040519081016040528092919081815260200182805480156110ab57602002820191906000526020600020905b815481526020019060010190808311611097575b50505050509150600090505b81518110156110f5578382828151811015156110cf57fe5b9060200190602002015114156110e857600192506110fa565b80806001019150506110b7565b600092505b5050919050565b828054600181600116156101000203166002900490600052602060002090601f016020900481019282601f1061114257805160ff1916838001178555611170565b82800160010185558215611170579182015b8281111561116f578251825591602001919060010190611154565b5b50905061117d91906111d7565b5090565b610140604051908101604052806000815260200160608152602001600081526020016000815260200160608152602001600081526020016000800b81526020016000815260200160008152602001600081525090565b6111f991905b808211156111f55760008160009055506001016111dd565b5090565b905600a165627a7a723058204ed3685e90accd0407726c6455e42203c6544e30d6592747e5e4aeb8f22456f20029",
  "source": "pragma solidity ^0.4.23;\n\ncontract Orders {\n  struct Order {\n    uint productId;\n    string name;\n    uint quantity;\n    uint price;\n    string shippingAddress;\n    uint shippingFee;\n    int8 orderStatus;\n    uint shippingTime;\n    uint createdAt;\n    uint updatedAt;\n  }\n  \n  Order[] orders;\n  mapping (uint => address) ordersToShop;\n  mapping( address => uint[]) ordersOfShop;\n  mapping ( address => uint[]) ordersOfCustomer;\n\n  event NewOrder(\n    uint productId, string name, uint quantity,\n    uint price, string shippingAddress, uint shippingFee,\n    uint orderStatus, uint shippingTime, uint createdAt,\n    uint updatedAt\n  );\n\n  event UpdateOrder(uint _id, int8 status);\n\n  modifier orderExits(uint _id) {\n    require(_id < orders.length, \"Order does not exist.\");\n    _;\n  }\n\n  // Check if msg.sender have permission to get order info\n  modifier canGetOrderInfo(uint _id) {\n    require(checkOrderBeLongCustomer(_id) || checkOrderBeLongShop(_id), \"Don't have permission to get this order.\");\n    _;\n  }\n\n  function createOrder(uint _productId, string _name, uint _quantity, uint _price, string _shipAddress, uint _shippingFee, address _shopAddress)\n    public returns (uint) {\n    uint id = orders.push(Order(_productId, _name, _quantity, _price, _shipAddress, _shippingFee, 0, 0, now, now)) - 1;\n    ordersToShop[id] = _shopAddress;\n    ordersOfShop[_shopAddress].push(id);\n    ordersOfCustomer[msg.sender].push(id);\n    emit NewOrder(_productId, _name, _quantity, _price, _shipAddress, _shippingFee, 0, 0, now, now);\n    return id;\n    \n  }\n\n  function getOrderIdsByCustomer() external view returns (uint[]) {\n    uint[] memory orderIds = ordersOfCustomer[msg.sender];\n    return orderIds;\n  }\n\n  function getOrderIdsByShop() external view returns (uint[]) {\n    uint[] memory orderIds = ordersOfShop[msg.sender];\n    return orderIds;\n  }\n\n  function getOrderById(uint _id) external view \n  orderExits(_id)\n  canGetOrderInfo(_id) \n  returns (uint, string, uint, uint, string, uint, int8, uint, uint, uint) \n  {\n    Order memory order = orders[_id];\n    return (\n      order.productId, order.name,order.quantity,\n      order.price, order.shippingAddress, order.shippingFee,\n      order.orderStatus, order.shippingTime, order.createdAt,\n      order.updatedAt\n    );\n  }\n\n  function updateOrderStatus(uint _id, int8 status) public orderExits(_id) {\n    require(status <= 5, \"Status is invalid.\");\n    if (status == 4 || status == -1) {\n      require(checkOrderBeLongCustomer(_id), \"Don't have permission to update this order.\");\n    } else {\n      require(checkOrderBeLongShop(_id), \"Don't have permission to update this order.\");\n    }\n    orders[_id].orderStatus = status;\n    emit UpdateOrder(_id, status);\n  }\n\n  function checkOrderBeLongShop(uint _id) internal view returns (bool) {\n    uint[] memory orderIdsOfshop = ordersOfShop[msg.sender];\n    for(uint i = 0; i < orderIdsOfshop.length; i++) {\n      if(orderIdsOfshop[i] == _id) {\n        return true;\n      }\n    }\n    return false;\n  }\n\n  function checkOrderBeLongCustomer(uint _id) internal view returns (bool) {\n    uint[] memory orderIdsOfCustomer = ordersOfCustomer[msg.sender];\n    for(uint i = 0; i < orderIdsOfCustomer.length; i++) {\n      if(orderIdsOfCustomer[i] == _id) {\n        return true;\n      }\n    }\n    return false;\n  }\n}",
  "sourcePath": "/home/manh/Desktop/smart_contract/contracts/Orders.sol",
  "compiler": {
    "name": "solc",
    "version": "0.4.24+commit.e67f0147.Emscripten.clang"
  },
  "schemaVersion": "2.0.1",
  "updatedAt": "2018-10-17T09:53:01.914Z"
}